{
  "address": "0xE218430F1b3d01259A3358C0af929D117781A476",
  "abi": [
    {
      "inputs": [
        {
          "internalType": "string",
          "name": "animationURLBase_",
          "type": "string"
        }
      ],
      "stateMutability": "nonpayable",
      "type": "constructor"
    },
    {
      "anonymous": false,
      "inputs": [
        {
          "indexed": true,
          "internalType": "address",
          "name": "owner",
          "type": "address"
        },
        {
          "indexed": true,
          "internalType": "address",
          "name": "approved",
          "type": "address"
        },
        {
          "indexed": true,
          "internalType": "uint256",
          "name": "tokenId",
          "type": "uint256"
        }
      ],
      "name": "Approval",
      "type": "event"
    },
    {
      "anonymous": false,
      "inputs": [
        {
          "indexed": true,
          "internalType": "address",
          "name": "owner",
          "type": "address"
        },
        {
          "indexed": true,
          "internalType": "address",
          "name": "operator",
          "type": "address"
        },
        {
          "indexed": false,
          "internalType": "bool",
          "name": "approved",
          "type": "bool"
        }
      ],
      "name": "ApprovalForAll",
      "type": "event"
    },
    {
      "anonymous": false,
      "inputs": [
        {
          "indexed": true,
          "internalType": "address",
          "name": "from",
          "type": "address"
        },
        {
          "indexed": true,
          "internalType": "address",
          "name": "to",
          "type": "address"
        },
        {
          "indexed": true,
          "internalType": "uint256",
          "name": "tokenId",
          "type": "uint256"
        }
      ],
      "name": "Transfer",
      "type": "event"
    },
    {
      "inputs": [
        {
          "internalType": "address",
          "name": "owner",
          "type": "address"
        }
      ],
      "name": "addressToTokenId",
      "outputs": [
        {
          "internalType": "uint256",
          "name": "",
          "type": "uint256"
        }
      ],
      "stateMutability": "pure",
      "type": "function"
    },
    {
      "inputs": [],
      "name": "animationURLBase",
      "outputs": [
        {
          "internalType": "string",
          "name": "",
          "type": "string"
        }
      ],
      "stateMutability": "view",
      "type": "function"
    },
    {
      "inputs": [
        {
          "internalType": "address",
          "name": "to",
          "type": "address"
        },
        {
          "internalType": "uint256",
          "name": "tokenId",
          "type": "uint256"
        }
      ],
      "name": "approve",
      "outputs": [],
      "stateMutability": "nonpayable",
      "type": "function"
    },
    {
      "inputs": [
        {
          "internalType": "address",
          "name": "owner",
          "type": "address"
        }
      ],
      "name": "balanceOf",
      "outputs": [
        {
          "internalType": "uint256",
          "name": "balance",
          "type": "uint256"
        }
      ],
      "stateMutability": "view",
      "type": "function"
    },
    {
      "inputs": [
        {
          "internalType": "uint256",
          "name": "tokenId",
          "type": "uint256"
        }
      ],
      "name": "getApproved",
      "outputs": [
        {
          "internalType": "address",
          "name": "operator",
          "type": "address"
        }
      ],
      "stateMutability": "view",
      "type": "function"
    },
    {
      "inputs": [
        {
          "internalType": "address",
          "name": "owner",
          "type": "address"
        },
        {
          "internalType": "address",
          "name": "operator",
          "type": "address"
        }
      ],
      "name": "isApprovedForAll",
      "outputs": [
        {
          "internalType": "bool",
          "name": "",
          "type": "bool"
        }
      ],
      "stateMutability": "view",
      "type": "function"
    },
    {
      "inputs": [],
      "name": "name",
      "outputs": [
        {
          "internalType": "string",
          "name": "",
          "type": "string"
        }
      ],
      "stateMutability": "view",
      "type": "function"
    },
    {
      "inputs": [
        {
          "internalType": "uint256",
          "name": "tokenId",
          "type": "uint256"
        }
      ],
      "name": "ownerOf",
      "outputs": [
        {
          "internalType": "address",
          "name": "owner",
          "type": "address"
        }
      ],
      "stateMutability": "pure",
      "type": "function"
    },
    {
      "inputs": [
        {
          "internalType": "address",
          "name": "",
          "type": "address"
        }
      ],
      "name": "possesed",
      "outputs": [
        {
          "internalType": "bool",
          "name": "",
          "type": "bool"
        }
      ],
      "stateMutability": "view",
      "type": "function"
    },
    {
      "inputs": [
        {
          "internalType": "address",
          "name": "owner",
          "type": "address"
        }
      ],
      "name": "possess",
      "outputs": [],
      "stateMutability": "nonpayable",
      "type": "function"
    },
    {
      "inputs": [
        {
          "internalType": "address",
          "name": "from",
          "type": "address"
        },
        {
          "internalType": "address",
          "name": "to",
          "type": "address"
        },
        {
          "internalType": "uint256",
          "name": "tokenId",
          "type": "uint256"
        }
      ],
      "name": "safeTransferFrom",
      "outputs": [],
      "stateMutability": "nonpayable",
      "type": "function"
    },
    {
      "inputs": [
        {
          "internalType": "address",
          "name": "from",
          "type": "address"
        },
        {
          "internalType": "address",
          "name": "to",
          "type": "address"
        },
        {
          "internalType": "uint256",
          "name": "tokenId",
          "type": "uint256"
        },
        {
          "internalType": "bytes",
          "name": "data",
          "type": "bytes"
        }
      ],
      "name": "safeTransferFrom",
      "outputs": [],
      "stateMutability": "nonpayable",
      "type": "function"
    },
    {
      "inputs": [
        {
          "internalType": "address",
          "name": "operator",
          "type": "address"
        },
        {
          "internalType": "bool",
          "name": "_approved",
          "type": "bool"
        }
      ],
      "name": "setApprovalForAll",
      "outputs": [],
      "stateMutability": "nonpayable",
      "type": "function"
    },
    {
      "inputs": [
        {
          "internalType": "bytes4",
          "name": "interfaceId",
          "type": "bytes4"
        }
      ],
      "name": "supportsInterface",
      "outputs": [
        {
          "internalType": "bool",
          "name": "",
          "type": "bool"
        }
      ],
      "stateMutability": "view",
      "type": "function"
    },
    {
      "inputs": [],
      "name": "symbol",
      "outputs": [
        {
          "internalType": "string",
          "name": "",
          "type": "string"
        }
      ],
      "stateMutability": "view",
      "type": "function"
    },
    {
      "inputs": [
        {
          "internalType": "uint256",
          "name": "tokenId",
          "type": "uint256"
        }
      ],
      "name": "tokenIdToAddress",
      "outputs": [
        {
          "internalType": "address",
          "name": "",
          "type": "address"
        }
      ],
      "stateMutability": "pure",
      "type": "function"
    },
    {
      "inputs": [
        {
          "internalType": "uint256",
          "name": "tokenId",
          "type": "uint256"
        }
      ],
      "name": "tokenURI",
      "outputs": [
        {
          "internalType": "string",
          "name": "",
          "type": "string"
        }
      ],
      "stateMutability": "view",
      "type": "function"
    },
    {
      "inputs": [
        {
          "internalType": "address",
          "name": "from",
          "type": "address"
        },
        {
          "internalType": "address",
          "name": "to",
          "type": "address"
        },
        {
          "internalType": "uint256",
          "name": "tokenId",
          "type": "uint256"
        }
      ],
      "name": "transferFrom",
      "outputs": [],
      "stateMutability": "nonpayable",
      "type": "function"
    }
  ],
  "transactionHash": "0x3599dcf64f59645b913070c893e459a8a62bd4fb96ef0be5762286dda88b22d8",
  "args": [
    "https://oversoul.vercel.app/creative/index.html?seed="
  ],
  "numDeployments": 1,
  "solcInputHash": "a09b91e0b329658efb1a6cb66a428a50",
  "bytecode": "0x60806040523480156200001157600080fd5b5060405162001e8638038062001e86833981810160405281019062000037919062000185565b80600190805190602001906200004f92919062000057565b50506200035a565b82805462000065906200026b565b90600052602060002090601f016020900481019282620000895760008555620000d5565b82601f10620000a457805160ff1916838001178555620000d5565b82800160010185558215620000d5579182015b82811115620000d4578251825591602001919060010190620000b7565b5b509050620000e49190620000e8565b5090565b5b8082111562000103576000816000905550600101620000e9565b5090565b60006200011e6200011884620001ff565b620001d6565b9050828152602081018484840111156200013d576200013c6200033a565b5b6200014a84828562000235565b509392505050565b600082601f8301126200016a576200016962000335565b5b81516200017c84826020860162000107565b91505092915050565b6000602082840312156200019e576200019d62000344565b5b600082015167ffffffffffffffff811115620001bf57620001be6200033f565b5b620001cd8482850162000152565b91505092915050565b6000620001e2620001f5565b9050620001f08282620002a1565b919050565b6000604051905090565b600067ffffffffffffffff8211156200021d576200021c62000306565b5b620002288262000349565b9050602081019050919050565b60005b838110156200025557808201518184015260208101905062000238565b8381111562000265576000848401525b50505050565b600060028204905060018216806200028457607f821691505b602082108114156200029b576200029a620002d7565b5b50919050565b620002ac8262000349565b810181811067ffffffffffffffff82111715620002ce57620002cd62000306565b5b80604052505050565b7f4e487b7100000000000000000000000000000000000000000000000000000000600052602260045260246000fd5b7f4e487b7100000000000000000000000000000000000000000000000000000000600052604160045260246000fd5b600080fd5b600080fd5b600080fd5b600080fd5b6000601f19601f8301169050919050565b611b1c806200036a6000396000f3fe608060405234801561001057600080fd5b50600436106101165760003560e01c80636511bf2e116100a2578063b88d4fde11610071578063b88d4fde14610305578063c87b56dd14610321578063daf90ef714610351578063e985e9c51461036d578063fd55c1811461039d57610116565b80636511bf2e1461026b57806370a082311461029b57806395d89b41146102cb578063a22cb465146102e957610116565b8063095ea7b3116100e9578063095ea7b3146101c957806323b872dd146101e557806342842e0e146102015780634c4ccdc11461021d5780636352211e1461023b57610116565b806301ffc9a71461011b57806306fdde031461014b578063081812fc1461016957806308bb76a514610199575b600080fd5b61013560048036038101906101309190611159565b6103cd565b60405161014291906114d2565b60405180910390f35b6101536104af565b60405161016091906114ed565b60405180910390f35b610183600480360381019061017e9190611186565b6104ec565b60405161019091906114b7565b60405180910390f35b6101b360048036038101906101ae9190611186565b610529565b6040516101c091906114b7565b60405180910390f35b6101e360048036038101906101de9190611119565b610533565b005b6101ff60048036038101906101fa9190610ffe565b61056e565b005b61021b60048036038101906102169190610ffe565b6105a9565b005b6102256105e4565b60405161023291906114ed565b60405180910390f35b61025560048036038101906102509190611186565b610672565b60405161026291906114b7565b60405180910390f35b61028560048036038101906102809190610f91565b610684565b604051610292919061154f565b60405180910390f35b6102b560048036038101906102b09190610f91565b6106a4565b6040516102c2919061154f565b60405180910390f35b6102d361070a565b6040516102e091906114ed565b60405180910390f35b61030360048036038101906102fe91906110d9565b610747565b005b61031f600480360381019061031a9190611051565b610782565b005b61033b60048036038101906103369190611186565b6107bd565b60405161034891906114ed565b60405180910390f35b61036b60048036038101906103669190610f91565b610872565b005b61038760048036038101906103829190610fbe565b6109c2565b60405161039491906114d2565b60405180910390f35b6103b760048036038101906103b29190610f91565b6109ff565b6040516103c491906114d2565b60405180910390f35b60007f80ac58cd000000000000000000000000000000000000000000000000000000007bffffffffffffffffffffffffffffffffffffffffffffffffffffffff1916827bffffffffffffffffffffffffffffffffffffffffffffffffffffffff1916148061049857507f5b5e139f000000000000000000000000000000000000000000000000000000007bffffffffffffffffffffffffffffffffffffffffffffffffffffffff1916827bffffffffffffffffffffffffffffffffffffffffffffffffffffffff1916145b806104a857506104a782610a1f565b5b9050919050565b60606040518060400160405280601181526020017f4f766572736f756c204d65646961746f72000000000000000000000000000000815250905090565b60006040517f08c379a00000000000000000000000000000000000000000000000000000000081526004016105209061152f565b60405180910390fd5b6000819050919050565b6040517f08c379a00000000000000000000000000000000000000000000000000000000081526004016105659061152f565b60405180910390fd5b6040517f08c379a00000000000000000000000000000000000000000000000000000000081526004016105a09061152f565b60405180910390fd5b6040517f08c379a00000000000000000000000000000000000000000000000000000000081526004016105db9061152f565b60405180910390fd5b600180546105f190611744565b80601f016020809104026020016040519081016040528092919081815260200182805461061d90611744565b801561066a5780601f1061063f5761010080835404028352916020019161066a565b820191906000526020600020905b81548152906001019060200180831161064d57829003601f168201915b505050505081565b600061067d82610529565b9050919050565b60008173ffffffffffffffffffffffffffffffffffffffff169050919050565b60008060008373ffffffffffffffffffffffffffffffffffffffff1673ffffffffffffffffffffffffffffffffffffffff16815260200190815260200160002060009054906101000a900460ff166106fd576000610700565b60015b60ff169050919050565b60606040518060400160405280600281526020017f4f4d000000000000000000000000000000000000000000000000000000000000815250905090565b6040517f08c379a00000000000000000000000000000000000000000000000000000000081526004016107799061152f565b60405180910390fd5b6040517f08c379a00000000000000000000000000000000000000000000000000000000081526004016107b49061152f565b60405180910390fd5b606060006107ca83610529565b905060006107f6826040516020016107e29190611406565b604051602081830303815290604052610a89565b905060008160018360405160200161080f929190611421565b60405160208183030381529060405260405160200161082f929190611445565b604051602081830303815290604052905061084981610d83565b6040516020016108599190611495565b6040516020818303038152906040529350505050919050565b6000808273ffffffffffffffffffffffffffffffffffffffff1673ffffffffffffffffffffffffffffffffffffffff16815260200190815260200160002060009054906101000a900460ff16156108fe576040517f08c379a00000000000000000000000000000000000000000000000000000000081526004016108f59061150f565b60405180910390fd5b60016000808373ffffffffffffffffffffffffffffffffffffffff1673ffffffffffffffffffffffffffffffffffffffff16815260200190815260200160002060006101000a81548160ff021916908315150217905550600061096082610684565b9050808273ffffffffffffffffffffffffffffffffffffffff16600073ffffffffffffffffffffffffffffffffffffffff167fddf252ad1be2c89b69c2b068fc378daa952ba7f163c4a11628f55a4df523b3ef60405160405180910390a45050565b60006040517f08c379a00000000000000000000000000000000000000000000000000000000081526004016109f69061152f565b60405180910390fd5b60006020528060005260406000206000915054906101000a900460ff1681565b60007f01ffc9a7000000000000000000000000000000000000000000000000000000007bffffffffffffffffffffffffffffffffffffffffffffffffffffffff1916827bffffffffffffffffffffffffffffffffffffffffffffffffffffffff1916149050919050565b606060006040518060400160405280601081526020017f30313233343536373839616263646566000000000000000000000000000000008152509050600060028451610ad59190611643565b6002610ae191906115bc565b67ffffffffffffffff811115610afa57610af961189f565b5b6040519080825280601f01601f191660200182016040528015610b2c5781602001600182028036833780820191505090505b5090507f300000000000000000000000000000000000000000000000000000000000000081600081518110610b6457610b63611870565b5b60200101907effffffffffffffffffffffffffffffffffffffffffffffffffffffffffffff1916908160001a9053507f780000000000000000000000000000000000000000000000000000000000000081600181518110610bc857610bc7611870565b5b60200101907effffffffffffffffffffffffffffffffffffffffffffffffffffffffffffff1916908160001a90535060005b8451811015610d7857826004868381518110610c1957610c18611870565b5b602001015160f81c60f81b7effffffffffffffffffffffffffffffffffffffffffffffffffffffffffffff1916901c60f81c60ff1681518110610c5f57610c5e611870565b5b602001015160f81c60f81b82600283610c789190611643565b6002610c8491906115bc565b81518110610c9557610c94611870565b5b60200101907effffffffffffffffffffffffffffffffffffffffffffffffffffffffffffff1916908160001a90535082600f60f81b868381518110610cdd57610cdc611870565b5b602001015160f81c60f81b1660f81c60ff1681518110610d0057610cff611870565b5b602001015160f81c60f81b82600283610d199190611643565b6003610d2591906115bc565b81518110610d3657610d35611870565b5b60200101907effffffffffffffffffffffffffffffffffffffffffffffffffffffffffffff1916908160001a9053508080610d7090611776565b915050610bfa565b508092505050919050565b6060600082511415610da657604051806020016040528060008152509050610ee2565b6000604051806060016040528060408152602001611aa76040913990506000600360028551610dd591906115bc565b610ddf9190611612565b6004610deb9190611643565b67ffffffffffffffff811115610e0457610e0361189f565b5b6040519080825280601f01601f191660200182016040528015610e365781602001600182028036833780820191505090505b509050600182016020820185865187015b80821015610ea2576003820191508151603f8160121c168501518453600184019350603f81600c1c168501518453600184019350603f8160061c168501518453600184019350603f8116850151845360018401935050610e47565b5050600386510660018114610ebe5760028114610ed157610ed9565b603d6001830353603d6002830353610ed9565b603d60018303535b50505080925050505b919050565b600081359050610ef681611a4a565b92915050565b600081359050610f0b81611a61565b92915050565b600081359050610f2081611a78565b92915050565b60008083601f840112610f3c57610f3b6118d3565b5b8235905067ffffffffffffffff811115610f5957610f586118ce565b5b602083019150836001820283011115610f7557610f746118d8565b5b9250929050565b600081359050610f8b81611a8f565b92915050565b600060208284031215610fa757610fa66118e2565b5b6000610fb584828501610ee7565b91505092915050565b60008060408385031215610fd557610fd46118e2565b5b6000610fe385828601610ee7565b9250506020610ff485828601610ee7565b9150509250929050565b600080600060608486031215611017576110166118e2565b5b600061102586828701610ee7565b935050602061103686828701610ee7565b925050604061104786828701610f7c565b9150509250925092565b60008060008060006080868803121561106d5761106c6118e2565b5b600061107b88828901610ee7565b955050602061108c88828901610ee7565b945050604061109d88828901610f7c565b935050606086013567ffffffffffffffff8111156110be576110bd6118dd565b5b6110ca88828901610f26565b92509250509295509295909350565b600080604083850312156110f0576110ef6118e2565b5b60006110fe85828601610ee7565b925050602061110f85828601610efc565b9150509250929050565b600080604083850312156111305761112f6118e2565b5b600061113e85828601610ee7565b925050602061114f85828601610f7c565b9150509250929050565b60006020828403121561116f5761116e6118e2565b5b600061117d84828501610f11565b91505092915050565b60006020828403121561119c5761119b6118e2565b5b60006111aa84828501610f7c565b91505092915050565b6111bc8161169d565b82525050565b6111d36111ce8261169d565b6117bf565b82525050565b6111e2816116af565b82525050565b60006111f38261157f565b6111fd8185611595565b935061120d818560208601611711565b80840191505092915050565b60006112248261158a565b61122e81856115a0565b935061123e818560208601611711565b611247816118e7565b840191505092915050565b600061125d8261158a565b61126781856115b1565b9350611277818560208601611711565b80840191505092915050565b6000815461129081611744565b61129a81866115b1565b945060018216600081146112b557600181146112c6576112f9565b60ff198316865281860193506112f9565b6112cf8561156a565b60005b838110156112f1578154818901526001820191506020810190506112d2565b838801955050505b50505092915050565b600061130f601e836115b1565b915061131a82611905565b601e82019050919050565b6000611332601a836115a0565b915061133d8261192e565b602082019050919050565b60006113556019836115a0565b915061136082611957565b602082019050919050565b60006113786002836115b1565b915061138382611980565b600282019050919050565b600061139b6012836115b1565b91506113a6826119a9565b601282019050919050565b60006113be6039836115b1565b91506113c9826119d2565b603982019050919050565b60006113e1601d836115b1565b91506113ec82611a21565b601d82019050919050565b61140081611707565b82525050565b600061141282846111c2565b60148201915081905092915050565b600061142d8285611283565b91506114398284611252565b91508190509392505050565b600061145082611302565b915061145c8285611252565b9150611467826113b1565b91506114728261138e565b915061147e82846111e8565b91506114898261136b565b91508190509392505050565b60006114a0826113d4565b91506114ac8284611252565b915081905092915050565b60006020820190506114cc60008301846111b3565b92915050565b60006020820190506114e760008301846111d9565b92915050565b600060208201905081810360008301526115078184611219565b905092915050565b6000602082019050818103600083015261152881611325565b9050919050565b6000602082019050818103600083015261154881611348565b9050919050565b600060208201905061156460008301846113f7565b92915050565b60008190508160005260206000209050919050565b600081519050919050565b600081519050919050565b600081905092915050565b600082825260208201905092915050565b600081905092915050565b60006115c782611707565b91506115d283611707565b9250827fffffffffffffffffffffffffffffffffffffffffffffffffffffffffffffffff03821115611607576116066117e3565b5b828201905092915050565b600061161d82611707565b915061162883611707565b92508261163857611637611812565b5b828204905092915050565b600061164e82611707565b915061165983611707565b9250817fffffffffffffffffffffffffffffffffffffffffffffffffffffffffffffffff0483118215151615611692576116916117e3565b5b828202905092915050565b60006116a8826116e7565b9050919050565b60008115159050919050565b60007fffffffff0000000000000000000000000000000000000000000000000000000082169050919050565b600073ffffffffffffffffffffffffffffffffffffffff82169050919050565b6000819050919050565b60005b8381101561172f578082015181840152602081019050611714565b8381111561173e576000848401525b50505050565b6000600282049050600182168061175c57607f821691505b602082108114156117705761176f611841565b5b50919050565b600061178182611707565b91507fffffffffffffffffffffffffffffffffffffffffffffffffffffffffffffffff8214156117b4576117b36117e3565b5b600182019050919050565b60006117ca826117d1565b9050919050565b60006117dc826118f8565b9050919050565b7f4e487b7100000000000000000000000000000000000000000000000000000000600052601160045260246000fd5b7f4e487b7100000000000000000000000000000000000000000000000000000000600052601260045260246000fd5b7f4e487b7100000000000000000000000000000000000000000000000000000000600052602260045260246000fd5b7f4e487b7100000000000000000000000000000000000000000000000000000000600052603260045260246000fd5b7f4e487b7100000000000000000000000000000000000000000000000000000000600052604160045260246000fd5b600080fd5b600080fd5b600080fd5b600080fd5b600080fd5b6000601f19601f8301169050919050565b60008160601b9050919050565b7f7b226e616d65223a224f766572736f756c204d65646961746f72206f66200000600082015250565b7f4d65646961746f723a20616c726561647920706f737365736564000000000000600082015250565b7f4d65646961746f723a204e6f7420496d706c656d656e74656400000000000000600082015250565b7f227d000000000000000000000000000000000000000000000000000000000000600082015250565b7f2c22616e696d6174696f6e5f75726c223a220000000000000000000000000000600082015250565b7f222c226465736372697074696f6e223a2022412076697375616c69736564206f60008201527f6e636861696e206964656e746974792077697468205342542200000000000000602082015250565b7f646174613a6170706c69636174696f6e2f6a736f6e3b6261736536342c000000600082015250565b611a538161169d565b8114611a5e57600080fd5b50565b611a6a816116af565b8114611a7557600080fd5b50565b611a81816116bb565b8114611a8c57600080fd5b50565b611a9881611707565b8114611aa357600080fd5b5056fe4142434445464748494a4b4c4d4e4f505152535455565758595a6162636465666768696a6b6c6d6e6f707172737475767778797a303132333435363738392b2fa264697066735822122009f62978797dbb2523df3bcf77b86fe766354ab1a745a662d979fd672b476bb164736f6c63430008060033",
  "devdoc": {
    "kind": "dev",
    "methods": {
      "approve(address,uint256)": {
        "details": "Gives permission to `to` to transfer `tokenId` token to another account. The approval is cleared when the token is transferred. Only a single account can be approved at a time, so approving the zero address clears previous approvals. Requirements: - The caller must own the token or be an approved operator. - `tokenId` must exist. Emits an {Approval} event."
      },
      "balanceOf(address)": {
        "details": "Returns the number of tokens in ``owner``'s account."
      },
      "getApproved(uint256)": {
        "details": "Returns the account approved for `tokenId` token. Requirements: - `tokenId` must exist."
      },
      "isApprovedForAll(address,address)": {
        "details": "Returns if the `operator` is allowed to manage all of the assets of `owner`. See {setApprovalForAll}"
      },
      "name()": {
        "details": "Returns the token collection name."
      },
      "ownerOf(uint256)": {
        "details": "Returns the owner of the `tokenId` token. Requirements: - `tokenId` must exist."
      },
      "safeTransferFrom(address,address,uint256)": {
        "details": "Safely transfers `tokenId` token from `from` to `to`, checking first that contract recipients are aware of the ERC721 protocol to prevent tokens from being forever locked. Requirements: - `from` cannot be the zero address. - `to` cannot be the zero address. - `tokenId` token must exist and be owned by `from`. - If the caller is not `from`, it must have been allowed to move this token by either {approve} or {setApprovalForAll}. - If `to` refers to a smart contract, it must implement {IERC721Receiver-onERC721Received}, which is called upon a safe transfer. Emits a {Transfer} event."
      },
      "safeTransferFrom(address,address,uint256,bytes)": {
        "details": "Safely transfers `tokenId` token from `from` to `to`. Requirements: - `from` cannot be the zero address. - `to` cannot be the zero address. - `tokenId` token must exist and be owned by `from`. - If the caller is not `from`, it must be approved to move this token by either {approve} or {setApprovalForAll}. - If `to` refers to a smart contract, it must implement {IERC721Receiver-onERC721Received}, which is called upon a safe transfer. Emits a {Transfer} event."
      },
      "setApprovalForAll(address,bool)": {
        "details": "Approve or remove `operator` as an operator for the caller. Operators can call {transferFrom} or {safeTransferFrom} for any token owned by the caller. Requirements: - The `operator` cannot be the caller. Emits an {ApprovalForAll} event."
      },
      "symbol()": {
        "details": "Returns the token collection symbol."
      },
      "tokenURI(uint256)": {
        "details": "Returns the Uniform Resource Identifier (URI) for `tokenId` token."
      },
      "transferFrom(address,address,uint256)": {
        "details": "Transfers `tokenId` token from `from` to `to`. WARNING: Usage of this method is discouraged, use {safeTransferFrom} whenever possible. Requirements: - `from` cannot be the zero address. - `to` cannot be the zero address. - `tokenId` token must be owned by `from`. - If the caller is not `from`, it must be approved to move this token by either {approve} or {setApprovalForAll}. Emits a {Transfer} event."
      }
    },
    "version": 1
  },
  "userdoc": {
    "kind": "user",
    "methods": {},
    "version": 1
  },
  "storageLayout": {
    "storage": [
      {
        "astId": 474,
        "contract": "contracts/Mediator.sol:Mediator",
        "label": "possesed",
        "offset": 0,
        "slot": "0",
        "type": "t_mapping(t_address,t_bool)"
      },
      {
        "astId": 476,
        "contract": "contracts/Mediator.sol:Mediator",
        "label": "animationURLBase",
        "offset": 0,
        "slot": "1",
        "type": "t_string_storage"
      }
    ],
    "types": {
      "t_address": {
        "encoding": "inplace",
        "label": "address",
        "numberOfBytes": "20"
      },
      "t_bool": {
        "encoding": "inplace",
        "label": "bool",
        "numberOfBytes": "1"
      },
      "t_mapping(t_address,t_bool)": {
        "encoding": "mapping",
        "key": "t_address",
        "label": "mapping(address => bool)",
        "numberOfBytes": "32",
        "value": "t_bool"
      },
      "t_string_storage": {
        "encoding": "bytes",
        "label": "string",
        "numberOfBytes": "32"
      }
    }
  }
}