{
  "address": "0x825a4427Ce60f578550ED7B9B4B14b161555c9cb",
  "abi": [
    {
      "anonymous": false,
      "inputs": [
        {
          "indexed": true,
          "internalType": "address",
          "name": "from",
          "type": "address"
        },
        {
          "indexed": true,
          "internalType": "address",
          "name": "to",
          "type": "address"
        },
        {
          "indexed": true,
          "internalType": "uint256",
          "name": "tokenId",
          "type": "uint256"
        }
      ],
      "name": "Transfer",
      "type": "event"
    },
    {
      "inputs": [
        {
          "internalType": "address",
          "name": "owner",
          "type": "address"
        }
      ],
      "name": "addressToTokenId",
      "outputs": [
        {
          "internalType": "uint256",
          "name": "",
          "type": "uint256"
        }
      ],
      "stateMutability": "pure",
      "type": "function"
    },
    {
      "inputs": [
        {
          "internalType": "address",
          "name": "owner",
          "type": "address"
        }
      ],
      "name": "balanceOf",
      "outputs": [
        {
          "internalType": "uint256",
          "name": "balance",
          "type": "uint256"
        }
      ],
      "stateMutability": "view",
      "type": "function"
    },
    {
      "inputs": [
        {
          "internalType": "uint256",
          "name": "tokenId",
          "type": "uint256"
        }
      ],
      "name": "ownerOf",
      "outputs": [
        {
          "internalType": "address",
          "name": "owner",
          "type": "address"
        }
      ],
      "stateMutability": "pure",
      "type": "function"
    },
    {
      "inputs": [
        {
          "internalType": "address",
          "name": "",
          "type": "address"
        }
      ],
      "name": "possesed",
      "outputs": [
        {
          "internalType": "bool",
          "name": "",
          "type": "bool"
        }
      ],
      "stateMutability": "view",
      "type": "function"
    },
    {
      "inputs": [
        {
          "internalType": "address",
          "name": "owner",
          "type": "address"
        }
      ],
      "name": "possess",
      "outputs": [],
      "stateMutability": "nonpayable",
      "type": "function"
    },
    {
      "inputs": [
        {
          "internalType": "bytes4",
          "name": "interfaceId",
          "type": "bytes4"
        }
      ],
      "name": "supportsInterface",
      "outputs": [
        {
          "internalType": "bool",
          "name": "",
          "type": "bool"
        }
      ],
      "stateMutability": "view",
      "type": "function"
    },
    {
      "inputs": [
        {
          "internalType": "uint256",
          "name": "tokenId",
          "type": "uint256"
        }
      ],
      "name": "tokenIdToAddress",
      "outputs": [
        {
          "internalType": "address",
          "name": "",
          "type": "address"
        }
      ],
      "stateMutability": "pure",
      "type": "function"
    }
  ],
  "transactionHash": "0x133f4ea3279c5151321e2a8e464bcaf9ee580fdcac30b997ae520774dc010349",
  "args": [],
  "numDeployments": 1,
  "solcInputHash": "131cd31ea817081a1f7531e60cb30567",
  "bytecode": "0x608060405234801561001057600080fd5b506107c4806100206000396000f3fe608060405234801561001057600080fd5b506004361061007d5760003560e01c80636511bf2e1161005b5780636511bf2e1461011257806370a0823114610142578063daf90ef714610172578063fd55c1811461018e5761007d565b806301ffc9a71461008257806308bb76a5146100b25780636352211e146100e2575b600080fd5b61009c6004803603810190610097919061057b565b6101be565b6040516100a99190610640565b60405180910390f35b6100cc60048036038101906100c791906105a8565b6102a0565b6040516100d99190610625565b60405180910390f35b6100fc60048036038101906100f791906105a8565b6102aa565b6040516101099190610625565b60405180910390f35b61012c6004803603810190610127919061054e565b6102bc565b604051610139919061067b565b60405180910390f35b61015c6004803603810190610157919061054e565b6102dc565b604051610169919061067b565b60405180910390f35b61018c6004803603810190610187919061054e565b610342565b005b6101a860048036038101906101a3919061054e565b610485565b6040516101b59190610640565b60405180910390f35b60007f80ac58cd000000000000000000000000000000000000000000000000000000007bffffffffffffffffffffffffffffffffffffffffffffffffffffffff1916827bffffffffffffffffffffffffffffffffffffffffffffffffffffffff1916148061028957507f5b5e139f000000000000000000000000000000000000000000000000000000007bffffffffffffffffffffffffffffffffffffffffffffffffffffffff1916827bffffffffffffffffffffffffffffffffffffffffffffffffffffffff1916145b806102995750610298826104a5565b5b9050919050565b6000819050919050565b60006102b5826102a0565b9050919050565b60008173ffffffffffffffffffffffffffffffffffffffff169050919050565b60008060008373ffffffffffffffffffffffffffffffffffffffff1673ffffffffffffffffffffffffffffffffffffffff16815260200190815260200160002060009054906101000a900460ff16610335576000610338565b60015b60ff169050919050565b6000808273ffffffffffffffffffffffffffffffffffffffff1673ffffffffffffffffffffffffffffffffffffffff16815260200190815260200160002060009054906101000a900460ff16156103ce576040517f08c379a00000000000000000000000000000000000000000000000000000000081526004016103c59061065b565b60405180910390fd5b60016000808373ffffffffffffffffffffffffffffffffffffffff1673ffffffffffffffffffffffffffffffffffffffff16815260200190815260200160002060006101000a81548160ff02191690831515021790555060008173ffffffffffffffffffffffffffffffffffffffff16600073ffffffffffffffffffffffffffffffffffffffff167fddf252ad1be2c89b69c2b068fc378daa952ba7f163c4a11628f55a4df523b3ef60405160405180910390a450565b60006020528060005260406000206000915054906101000a900460ff1681565b60007f01ffc9a7000000000000000000000000000000000000000000000000000000007bffffffffffffffffffffffffffffffffffffffffffffffffffffffff1916827bffffffffffffffffffffffffffffffffffffffffffffffffffffffff1916149050919050565b60008135905061051e81610749565b92915050565b60008135905061053381610760565b92915050565b60008135905061054881610777565b92915050565b6000602082840312156105645761056361071b565b5b60006105728482850161050f565b91505092915050565b6000602082840312156105915761059061071b565b5b600061059f84828501610524565b91505092915050565b6000602082840312156105be576105bd61071b565b5b60006105cc84828501610539565b91505092915050565b6105de816106a7565b82525050565b6105ed816106b9565b82525050565b6000610600601a83610696565b915061060b82610720565b602082019050919050565b61061f81610711565b82525050565b600060208201905061063a60008301846105d5565b92915050565b600060208201905061065560008301846105e4565b92915050565b60006020820190508181036000830152610674816105f3565b9050919050565b60006020820190506106906000830184610616565b92915050565b600082825260208201905092915050565b60006106b2826106f1565b9050919050565b60008115159050919050565b60007fffffffff0000000000000000000000000000000000000000000000000000000082169050919050565b600073ffffffffffffffffffffffffffffffffffffffff82169050919050565b6000819050919050565b600080fd5b7f4d65646961746f723a20616c726561647920706f737365736564000000000000600082015250565b610752816106a7565b811461075d57600080fd5b50565b610769816106c5565b811461077457600080fd5b50565b61078081610711565b811461078b57600080fd5b5056fea26469706673582212207fe1859b6e231dbecb28ca78ad744799bf45116510294b3358a4c2b5dd0791c764736f6c63430008060033",
  "devdoc": {
    "kind": "dev",
    "methods": {
      "supportsInterface(bytes4)": {
        "details": "See {IERC165-supportsInterface}."
      }
    },
    "version": 1
  },
  "userdoc": {
    "kind": "user",
    "methods": {},
    "version": 1
  },
  "storageLayout": {
    "storage": [
      {
        "astId": 196,
        "contract": "contracts/Mediator.sol:Mediator",
        "label": "possesed",
        "offset": 0,
        "slot": "0",
        "type": "t_mapping(t_address,t_bool)"
      }
    ],
    "types": {
      "t_address": {
        "encoding": "inplace",
        "label": "address",
        "numberOfBytes": "20"
      },
      "t_bool": {
        "encoding": "inplace",
        "label": "bool",
        "numberOfBytes": "1"
      },
      "t_mapping(t_address,t_bool)": {
        "encoding": "mapping",
        "key": "t_address",
        "label": "mapping(address => bool)",
        "numberOfBytes": "32",
        "value": "t_bool"
      }
    }
  }
}